:0400000017EF01F005
:10000800FACF01F0FBCF02F0E9CF03F0EACF04F01A
:10001800E1CF05F0E2CF06F0D9CF07F0DACF08F04C
:10002800F3CF09F0F4CF0AF0F6CF0BF0F7CF0CF0CE
:10003800F8CF0DF0F5CF0EF09EA001D001D03AD048
:100048001C4A1D2A1C500F0A1D10D8A401D001D02B
:100058002FD02F4A302A000E1D6E000E1C6E2F5016
:100068003C0A3010D8A401D001D022D02D4A2E2A23
:10007800000E306E000E2F6E2D503C0A2E10D8A4A4
:1000880001D001D015D02B4A2C2A000E2E6E000E5E
:100098002D6E2B50180A2C10D8A401D001D008D0EE
:1000A800000E2C6E000E2B6E03D002D001D000D0B3
:1000B8009E9000D0F2A401D001D03AD0204A212A43
:1000C8002050F40A2110D8A401D001D02FD0264AFC
:1000D800272A000E216E000E206E26503C0A27109B
:1000E800D8A401D001D022D0244A252A000E276E98
:1000F800000E266E24500F0A2510D8A401D001D076
:1001080015D08A96000E256E000E246E000E276EFE
:10011800000E266ED59E000ED76E000ED66E000E0F
:10012800296E040E286E02D001D000D0F29400D0BF
:100138009EAA01D001D046D0AECF2AF02A504C0A50
:10014800D8B401D001D006D02A506C0AD8A401D066
:1001580001D006D08986000E296E010E286E32D095
:100168002A504F0AD8B401D001D006D02A506F0ABD
:10017800D8A401D001D006D08996000E296E020EAF
:10018800286E20D02A50480AD8B401D001D007D010
:100198002A50680AD8A401D001D00CD000D0000E93
:1001A800D76E000ED66E8A86D58E000E296E030E87
:1001B800286E08D0000E296E000E286E03D002D0DB
:1001C80001D000D0F2A201D001D010D08982899448
:1001D80089968A96D59EBA94000E296E050E286EC9
:1001E800000ED76E000ED66EF29200D00EC0F5FF4C
:1001F8000DC0F8FF0CC0F7FF0BC0F6FF0AC0F4FFF4
:1002080009C0F3FF08C0DAFF07C0D9FF06C0E2FF44
:1002180005C0E1FF04C0EAFF03C0E9FF02C0FBFF1D
:0A02280001C0FAFF110074EF07F0A7
:1006000030303A30303A3030202020202020200076
:100610004F46463A464C4841004F4E3A2020202053
:100620000000520ED36E000E926E000E0F010F01ED
:10063000386F000E806E010E936E000E0F010F01D9
:10064000396F000E816E830E946E000E0F010F0144
:100650003A6F000E826ED0EC07F0BFEC07F028EC8A
:1006600006F0ABEC07F0EEEC07F01A6E010E146E1C
:100670001A50F9EC07F0060E196E000E186E91EC88
:1006800007F01A6E010E146E1A5003EC08F0060EF5
:10069000196E190E186E91EC07F01A6E090E146E91
:1006A0001A5003EC08F0060E196E100E186E91EC3D
:1006B00007F0898200D082B201D001D036D082A06A
:1006C00001D001D032D0BAB401D001D02ED0820EE8
:1006D0001A6EDD0EE82EFED71A2EFCD700D0820E41
:1006E0001A6EDD0EE82EFED71A2EFCD700D0820E31
:1006F0001A6EDD0EE82EFED71A2EFCD700D02D4A3A
:100700002E2A3C0E2D5C000E2E58D8A001D001D010
:1007100007D0000E2E6E000E2D6E2B4A2C2A00D014
:10072000000E296E000E286E00D082B001D001D0DC
:100730002FD082A201D001D02BD0820E1A6EDD0EF6
:10074000E82EFED71A2EFCD700D0820E1A6EDD0ED0
:10075000E82EFED71A2EFCD700D0820E1A6EDD0EC0
:10076000E82EFED71A2EFCD700D02B4A2C2A180EC2
:100770002B5C000E2C58D8A001D001D004D0000E64
:100780002C6E000E2B6E000E296E000E286E00D00F
:1007900082B001D001D02DD082B201D001D029D0B9
:1007A000820E1A6EDD0EE82EFED71A2EFCD700D070
:1007B000820E1A6EDD0EE82EFED71A2EFCD700D060
:1007C000820E1A6EDD0EE82EFED71A2EFCD700D050
:1007D000000E306E000E2F6E000E2E6E000E2D6E6F
:1007E000000E2C6E000E2B6E000E296E000E286E71
:1007F00000D02B50120A2C10D8A401D001D012D056
:100800002E502D10D8A401D001D00CD030502F1074
:10081000D8A401D001D006D08984000E296E060E1E
:10082000286E00D02B50070A2C10D8A401D001D07C
:1008300015D02E502D10D8A401D001D00FD030509B
:100840002F10D8A401D001D009D0000EBC6E89941D
:10085000BA84000E296E070E286E00D02B50160A9F
:100860002C10D8A401D001D012D02E502D10D8A415
:1008700001D001D00CD030502F10D8A401D001D01D
:1008800006D08996000E296E080E286E00D0BAA4F4
:1008900001D001D0B0D182B201D001D0ACD1820E52
:1008A0001A6EDD0EE82EFED71A2EFCD700D0820E6F
:1008B0001A6EDD0EE82EFED71A2EFCD700D0820E5F
:1008C0001A6EDD0EE82EFED71A2EFCD700D0BA9491
:1008D000000EBC6E000E296E090E286E8CD18BD1D5
:1008E0001A6E010E146E1A50F9EC07F02BC00FF0BF
:1008F0002CC010F0000E126E0A0E116EE6EC06F01F
:100900000F50300F176E16EC08F02BC00FF02CC0F4
:1009100010F0000E126E0A0E116E1CEC07F00F5054
:10092000300F176E16EC08F01A6E3A0E176E1A504A
:1009300016EC08F02DC00FF02EC010F0000E126E55
:100940000A0E116EE6EC06F00F50300F176E16EC23
:1009500008F02DC00FF02EC010F0000E126E0A0E1F
:10096000116E1CEC07F00F50300F176E16EC08F0EC
:100970001A6E3A0E176E1A5016EC08F02FC00FF0D0
:1009800030C010F0000E126E0A0E116EE6EC06F08A
:100990000F50300F176E16EC08F02FC00FF030C05C
:1009A00010F0000E126E0A0E116E1CEC07F00F50C4
:1009B000300F176E16EC08F07ED61A6E050E146E08
:1009C0001A5003EC08F01A6E4C0E176E1A5016EC03
:1009D00008F01A6E0E0E146E1A5003EC08F01A6E20
:1009E000200E176E1A5016EC08F0000E296E000E3D
:1009F000286E61D61A6E050E146E1A5003EC08F0BC
:100A00001A6E200E176E1A5016EC08F01A6E0E0EA3
:100A1000146E1A5003EC08F01A6E4C0E176E1A5032
:100A200016EC08F0000E296E000E286E44D61A6EE1
:100A3000060E146E1A5003EC08F01A6E480E176E6C
:100A40001A5016EC08F01A6E0F0E146E1A5003ECC2
:100A500008F01A6E200E176E1A5016EC08F0000EF1
:100A6000296E000E286E27D61A6E060E146E1A50C6
:100A700003EC08F01A6E200E176E1A5016EC08F0F0
:100A80001A6E0F0E146E1A5003EC08F01A6E480E10
:100A9000176E1A5016EC08F0000E296E000E286E24
:100AA0000AD61A6E010E146E1A5003EC08F0060EE8
:100AB000196E190E186E91EC07F01A6E090E146E6D
:100AC0001A5003EC08F0060E196E100E186E91EC19
:100AD00007F0000E296E000E286EEDD51A6E040E7A
:100AE000146E1A5003EC08F01A6E460E176E1A5068
:100AF00016EC08F01A6E0D0E146E1A5003EC08F086
:100B00001A6E200E176E1A5016EC08F0000E296EA1
:100B1000000E286ED0D51A6E040E146E1A5003EC17
:100B200008F01A6E200E176E1A5016EC08F01A6EA6
:100B30000D0E146E1A5003EC08F01A6E460E176E66
:100B40001A5016EC08F01A6E070E146E1A5003ECC9
:100B500008F01A6E410E176E1A5016EC08F01A6E55
:100B6000100E146E1A5003EC08F01A6E200E176E59
:100B70001A5016EC08F0000E296E000E286E9BD558
:100B80001A6E050E146E1A5003EC08F01A6E200E41
:100B9000176E1A5016EC08F01A6E0E0E146E1A50DC
:100BA00003EC08F01A6E4C0E176E1A5016EC08F093
:100BB000000E296E000E286E7ED51A6E070E146E7A
:100BC0001A5003EC08F01A6E200E176E1A5016EC2D
:100BD00008F01A6E100E146E1A5003EC08F01A6E1C
:100BE000410E176E1A5016EC08F0000E296E000E1A
:100BF000286E61D560D528C01AF029C01BF01B50A3
:100C0000000AD8B401D057D51A50000AD8B468D613
:100C1000010AD8B4D2D6030AD8B4ECD6010AD8B4A3
:100C200006D7070AD8B420D7010AD8B43AD7030A9E
:100C3000D8B454D7010AD8B46ED70F0AD8B4A0D705
:100C4000010AD8B4BAD737D536D535D517EF01F064
:100C5000010E936E000E816E1A0E126EF80EE82EC3
:100C6000FED7122EFCD700F0126E300E0F6E12500F
:100C70000DEC08F0080E126EC90EE82EFED7122EEB
:100C8000FCD700D0126E300E0F6E12500DEC08F033
:100C9000FA0E00F0E82EFDD7126E300E0F6E1250D5
:100CA0000DEC08F0FA0E00F0E82EFDD7126E200EC3
:100CB0000F6E12500DEC08F0FA0E00F0E82EFDD782
:100CC000126E280E0F6E12504AEC07F0126E080ECC
:100CD0000F6E12504AEC07F0126E010E0F6E12509A
:100CE0004AEC07F0030E126E970EE82EFED7122E76
:100CF000FCD700D0126E060E0F6E12504AEC07F0B1
:100D0000126E0C0E0F6E12504AEC07F08A8412001D
:100D1000136E000E156E135012AE01D001D009D023
:100D2000116C121ED8B0122A136E010E156E1350DC
:100D300000D010AE01D001D007D00F6C101ED8B07B
:100D4000102A010E151A00D0000E176E000E166E36
:100D500012501110D8B401D001D028D0136E010E5A
:100D6000146E135005D0D89011361236142A00D0C4
:100D700012AE01D001D0F7D701D000D0D8901636EE
:100D8000173611500F5C12501058D8A001D001D066
:100D900006D011500F5E1250105A168000D0D89015
:100DA00012321132142EEAD701D000D01550D8B427
:100DB00001D001D005D0166C171ED8B0172A00D06C
:100DC00016C00FF017C010F000D01200000E156E04
:100DD000000E146E12501110D8B401D001D027D0DB
:100DE000136E010E166E135005D0D89011361236C0
:100DF000162A00D012AE01D001D0F7D701D000D012
:100E0000D8901436153611500F5C12501058D8A0D7
:100E100001D001D006D011500F5E1250105A14802C
:100E200000D0D89012321132162EEAD700D014C05A
:100E30000FF015C010F0120012501110D8B401D0EC
:100E400001D023D0136E010E146E135005D0D8902C
:100E500011361236142A00D012AE01D001D0F7D7C5
:100E600001D000D011500F5C12501058D8A001D002
:100E700001D005D011500F5E1250105A00D0D890FA
:100E800012321132142EEED700D00FC00FF010C066
:100E900010F01200106E000E116E105081500F0BEA
:100EA000816E0F50F00B116E81501110816E8A828D
:100EB000FA0E00F0E82EFDD78A920F38F00B0F6E75
:100EC000FA0E00F0E82EFDD781500F0B816E0F5007
:100ED000F00B116E81501110816E8A82FA0E00F0B3
:100EE000E82EFDD78A92120000EE1CF00F0EEE6A7B
:100EF000E806FDE13A0EF66E100EF76E000EF86E83
:100F000000EE2BF010EE06F00900F5CFEEFFE550F5
:100F1000E150FAE1000EF86E060EF76E000111EFD7
:100F200003F00CD018C0F6FF19C0F7FF0800F5CF8A
:100F300017F016EC08F0184A192A00D018C0F6FF6E
:100F400019C0F7FF0800F5500009D8A401D001D05E
:100F5000E9D700D012003E0EBB6E020EBA6E0C0E28
:100F6000BD6EBBCF0FF0106A000E126E020E116E36
:100F700088EC06F00F50BE6E000EBC6E1200CD9EC7
:100F8000CD9CCD98CD9ACD96CD94CD929E90CD808E
:100F90009D80F28CF28E000ECE6E000ECF6E12008F
:100FA000D580D582D594D596D59AD58CD59EF28A02
:100FB000F294F28E000ED76E000ED66E12008A9456
:100FC00012C00FF04AEC07F0030E136E970EE82ED6
:100FD000FED7132EFCD700D08A841200AC98AB8EBB
:100FE000AB88330EAF6EAC849D8A9E9AF28CF28EE3
:100FF000120014507F0F126EDFEC07F0FA0E00F0B3
:10100000E82EFDD712001450BF0F126EDFEC07F070
:10101000FA0E00F0E82EFDD712000FC081FF8A8281
:10102000FA0E00F0E82EFDD78A9212008A8417C0CB
:101030000FF04AEC07F08A94120006003B003A00D9
:020000040030CA
:08000000FF281F3CFFBF81FF38
:00000001FF
